:100000000C9456000C9460000C9460000C946000FA
:100010000C9460000C9460000C9460000C946000E0
:100020000C9460000C9460000C9460000C946000D0
:100030000C9460000C9460000C9460000C946000C0
:100040000C9460000C9460000C9460000C946000B0
:100050000C9460000C9460000C9460000C946000A0
:100060000C9460000C9460000C9460000C94600090
:100070000C9460000C9460000C9460000C94600080
:100080000C9460000C9460000C9460000C94600070
:100090000C9460000C9460000C9460000C94600060
:1000A0000C9460000C9460000C94600011241FBE3E
:1000B000CFEFDAE0DEBFCDBF0E9489000C94B10023
:1000C0000C94000035B189B199B129B18072907456
:1000D000892B832B2078822B85B9089585B190E2F6
:1000E000892785B980E197E229E130E0F90131976C
:1000F000F1F70197D9F785B190E2892785B980E1B9
:1001000097E229E130E0F9013197F1F70197D9F74A
:100110000895259A269A279A8BB190E289278BB960
:100120000E9499000E946200FDCF81E40E94A90014
:1001300008958CE090E09093CD008093CC0082E015
:100140008093C80088E18093C90086E08093CA004C
:100150000895982F8091C80085FFFCCF9093CE0022
:060160000895F894FFCFA2
:00000001FF
